:03000000020BE808
:0C0BE800787FE4F6D8FD758165020C2FC3
:100F150073706565643A20256420636D2F73200026
:100E2E0002510000112241542B43495053454E4468
:070E3E003D302C350D0A00C8
:05000600D2A8D28822FF
:100CF100120EF2120EC6120F25120E51120F04120D
:100D01000006120C74120E72E56160307B007A00ED
:100D1100792212000E120F25750BFF750C0F750D40
:100D21001585620E85630F7B007A00793312067296
:100D31007B007A00793312000EE4F5617B007A00C2
:0B0D410079337D027F02120D8280BD1D
:03000300020F33B6
:0D0F3300C0E00552E55270020551D0E032D9
:090F5600C2B3D2B7C2B4D2B52275
:090F5F00D2B3C2B7D2B4C2B5226C
:090F6800D2B3C2B7C2B4C2B52273
:090F7100C2B3C2B7D2B4C2B5226A
:090F7A00C2B3C2B7C2B4C2B52271
:0D0F2500007F087E017DF3DDFEDEFCDFFABB
:010F3200229C
:040E45000253000054
:100EC600758E017598505389F0438920758BFD7591
:090ED6008DFDD28ED2AFD2AC2208
:080F83008F993099FDC29922FB
:10000E00120B2EFF600C120F83740129F9E43AFAD9
:03001E0080EE224F
:030023000209725D
:10097200C0E0C0F0C083C082C0D075D000C000C04B
:0D09820001C002C003C004C005C006C007CC
:10098F00209803020A36C298AF99EF644D6008EFC2
:10099F00644F6003BF30067553007554000554E56E
:1009AF005470020553142455F8A607E555B43017B3
:1009BF00E557B44312751E017E007F0C7D007B004E
:1009CF007A007955120B47E555B44F17E556B44BDE
:1009DF0012751D017E007F0C7D007B007A0079551A
:1009EF00120B47E555B44D27E55624CE600F146022
:1009FF001114601324037014120F5F8012120F561C
:100A0F00800D120F688008120F718003120F7AE5A4
:100A1F0054640C45537010F553F554FE7F0CFDFBD9
:070A2F007A007955120B4714
:100A3600D007D006D005D004D003D002D001D00014
:0B0A4600D0D0D082D083D0F0D0E032BE
:070E490002640000016100DA
:100EF200758901758A33758CFED28CC28DD2A9D2C6
:020F0200AF221C
:03000B00020D4C97
:100D4C00C0E0C0D00565E56570020564758A337531
:100D5C008CFEE565B4D01AE564B4071575610175B0
:100D6C00640075650085516285526375510075523A
:060D7C0000D0D0D0E032EF
:100DB30041542B43574D4F44453D320D0A00415496
:100DC3002B4349504D55583D310D0A0041542B4397
:0D0DD30049505345525645523D310D0A001E
:100E51007BFF7A0D79B312000EE51D60FCE4F51DF0
:100E61007BFF7A0D79C112000EE51D60FCE4F51DD2
:010E7100225E
:100F04007BFF7A0D79CF12000EE51E60FCE4F51D1F
:010F140022BA
:1000260000000000000000000000000000000000CA
:10003600000000F80000000000000033300000005F
:1000460000100C06100C0600000000000000000066
:1000560040C07840C0784000043F04043F040400D8
:10006600007088FC08300000001820FF211E0000E8
:10007600F008F000E018000000211C031E211E00FD
:1000860000F00888700000001E2123241927211083
:1000960010160E0000000000000000000000000026
:1000A600000000E0180402000000000718204000CD
:1000B60000020418E00000000040201807000000BD
:1000C600404080F0804040000202010F0102020021
:1000D600000000F0000000000101011F0101010005
:1000E600000000000000000080B07000000000006A
:1000F60000000000000000000001010101010101F3
:100106000000000000000000003030000000000089
:10011600000000008060180400601806010000005E
:1001260000E010080810E000000F102020100F005B
:10013600001010F8000000000020203F20200000E2
:10014600007008080888700000302824222130003A
:1001560000300888884830000018202020110E0042
:100166000000C02010F8000000070424243F2400EB
:1001760000F80888880808000019212020110E00C0
:1001860000E0108888180000000F112020110E00D2
:1001960000380808C83808000000003F00000000CA
:1001A6000070880808887000001C222121221C008B
:1001B60000E010080810E0000000312222110F00B4
:1001C600000000C0C0000000000000303000000049
:1001D60000000080000000000000806000000000B9
:1001E60000008040201008000001020408102000D2
:1001F600404040404040400004040404040404001D
:1002060000081020408000000020100804020100B1
:10021600007048080808F0000000003036010000B1
:10022600C030C828E810E0000718272423140B0064
:100236000000C038E0000000203C230202273820DE
:1002460008F8888888700000203F202020110E00C2
:10025600C0300808080838000718202020100800B9
:1002660008F808080810E000203F202020100F00A2
:1002760008F88888E8081000203F2020232018006E
:1002860008F88888E8081000203F200003000000D6
:10029600C03008080838000007182020221E020077
:1002A60008F808000008F808203F210101213F2036
:1002B600000808F8080800000020203F2020000061
:1002C60000000808F8080800C08080807F00000051
:1002D60008F888C028180800203F2001263820008A
:1002E60008F8080000000000203F202020203000F1
:1002F60008F8F800F8F80800203F003F003F20000B
:1003060008F830C00008F808203F200007183F0012
:10031600E01008080810E0000F10202020100F0041
:1003260008F808080808F000203F21010101000034
:10033600E01008080810E0000F18242438504F0079
:1003460008F8888888887000203F2000030C302039
:1003560000708808080838000038202121221C0077
:10036600180808F8080818000000203F20000000C0
:1003760008F808000008F808001F202020201F00A9
:100386000878880000C83808000007380E01000009
:10039600F80800F80008F800033C0700073C0300D3
:1003A600081868808068180820302C03032C302039
:1003B6000838C800C83808000000203F20000000A8
:1003C60010080808C8380800203826212020180000
:1003D600000000FE020202000000007F40404000D4
:1003E600000C30C000000000000000010638C0000C
:1003F60000020202FE000000004040407F000000B4
:1004060000000402020204000000000000000000D8
:1004160000000000000000008080808080808080D6
:1004260000020204000000000000000000000000BE
:1004360000008080808000000019242222223F20B4
:1004460008F8008080000000003F112020110E00F7
:100456000000008080800000000E11202020110086
:10046600000000808088F800000E112020103F2038
:100476000000808080800000001F222222221300BC
:10048600008080F0888888180020203F2020000007
:100496000000808080808000006B949494936000BC
:1004A60008F8008080800000203F210000203F20C7
:1004B60000809898000000000020203F20200000C7
:1004C600000000809898000000C08080807F0000B7
:1004D60008F8000080808000203F24022D30200094
:1004E600000808F8000000000020203F202000003F
:1004F6008080808080808000203F20003F20003F59
:100506008080008080800000203F210000203F2066
:100516000000808080800000001F202020201F0017
:10052600808000808000000080FFA12020110E0046
:100536000000008080808000000E112020A0FF8037
:10054600808080008080800020203F2120000100E4
:100556000000808080808000003324242424190039
:10056600008080E0808000000000001F2020000046
:100576008080000000808000001F202020103F2087
:10058600808080000080808000010E300806010017
:1005960080800080008080800F300C030C300F00BC
:1005A60000808000808080000020312E0E312000E7
:1005B600808080000080808080818E701806010017
:1005C60000808080808080000021302C2221300035
:1005D60000000000807C020200000000003F404056
:1005E60000000000FF00000000000000FF00000007
:1005F6000002027C800000000040403F0000000036
:1006060000060101020204040000000000000000D0
:0B0F4000C292D293D29200C293002212
:0B0F4B00C292C293D29200D293002207
:0B0E9000120DE7120E9BAF06120DE7DB
:0F0E9B00D29300D29200A293E433FF00C29200E0
:010EAA002225
:070DE000AE07120F407F78FF
:100DE700E4FBFAC292EF33929300D29200C29200D0
:0F0DF700EF25E0FF0BBB00010AEB64084A70E434
:010E060022C9
:050EDF00120EE4E4FF27
:0E0EE400120DE0120E9BE4FF120E90020F4B57
:0D0EAB0074262DF58274003CF583E493FF5E
:0E0EB800120DE0120E9B7F40120E90020F4BA7
:100C74007FAE120EDF7F10120EE47F40120EE47F6F
:100C8400B0120EE47F81120EE47FFF120EE47FA106
:100C9400120EE47FA6120EE47FA8120EE47F3F1228
:100CA4000EE47FC8120EE47FD3120EDF7FD5120E3E
:100CB400E47F80120EE47FD8120EE47F05120EE466
:100CC4007FD9120EE47FF1120EE47FDA120EE47F74
:100CD40012120EE47FDB120EE47F30120EE47F8DDD
:0D0CE400120EE47F14120EE47FAF020EE446
:100E7200E4FDED24B0FF120EDF7F10120EE4E4FC5D
:0D0E8200E4FF120EB80CBC80F70DBD08E5B2
:010E8F002240
:060A51008F0D8D0EA903BC
:100A5700E50D25E024AEFF120EE4E50E540FFF125C
:100A67000EE4E50E7804A2E713D8FB2410FF120E5C
:100A7700E4E9FF3395E0FEEF24E0FFEE34FFFEEFFD
:100A8700C4F8540FC868FFEEC454F048AD07FCE93A
:100A9700FF3395E0FEEFC4F8540FC868FFEEC45467
:100AA700F048FEEF2408FFEE34FEFEC3ED9FEC9EF8
:100AB700500A120EAB0DBD00010C80D3E50D25E0E9
:100AC70024AFFF120EE4E50E540FFF120EE4E50EFD
:100AD7007804A2E713D8FB2410FF120EE4E9FF33D2
:100AE70095E0FEEFC4F8540FC868FFEEC454F04811
:100AF700FEEF2408FDEE34FEFCE9FF3395E0FEEF40
:100B0700C4F8540FC868FFEEC454F048FEEF241031
:100B1700FFEE34FEFEC3ED9FEC9E500A120EAB0DA6
:060B2700BD00010C80D3AB
:010B2D0022A5
:100D82008F088D098B0A8A0B890CAB0AAA0BA90C56
:100D9200120B2EFB601AAD09AF08120A517401251D
:100DA2000CF50CE4350BF50B74082509F50980DA0E
:010DB200221E
:100BF400020CF1E493A3F8E493A34003F68001F21A
:100C040008DFF48029E493A3F85407240CC8C33301
:100C1400C4540F4420C8834004F456800146F6DFD0
:100C2400E4800B0102040810204080900E2EE47E24
:100C3400019360BCA3FF543F30E509541FFEE493C5
:100C4400A360010ECF54C025E060A840B8E493A38C
:100C5400FAE493A3F8E493A3C8C582C8CAC583CAB7
:100C6400F0A3C8C582C8CAC583CADFE9DEE780BE6F
:010E500000A1
:100B2E00BB010689828A83E0225002E722BBFE02C5
:090B3E00E32289828A83E49322F8
:10061600E517240BF8E60517227808300702780B51
:10062600E475F001120BB2020B2E2000EB7F2ED2E6
:10063600008018EF540F2490D43440D4FF30040BBC
:10064600EF24BFB41A0050032461FFE518600215B9
:1006560018051BE51B7002051A30070D7808E475AE
:10066600F001120BB2EF020BA0020E077403D207C1
:100676008003E4C207F5178B088A09890AE4F5188E
:10068600F51AF51BE51860077F2012065180F575EF
:1006960019FFC201C200C202C203C205C206C208D5
:1006A60012061FFF700D3007057F00120662AF1B92
:1006B600AE1A22B4255FC2D5C20412061FFF24D08B
:1006C600B40A00501A75F00A781830D50508B6FF36
:1006D6000106C6A426F620D5047002D20380D924CA
:1006E600CFB41A00EF5004C2E5D204020862D20168
:1006F60080C6D20080C0D20280BCD2D580BAD205D4
:1007060080B47F201206512002077401B5180040FC
:10071600F1120616FF12065102068AD208D2068088
:1007260095120616FB120616FA120616F94A4B70B1
:100736000679337A097BFF20022EE518602A7E00AF
:100746008E82758300120B7360060EEE651970F0CB
:10075600C2D5EBC0E0EAC0E0E9C0E0EE1208A9D0DD
:10076600E0F9D0E0FAD0E0FB120B2EFF60AAEBC056
:10077600E0EAC0E0E9C0E0120651D0E02401F9D079
:10078600E03400FAD0E0FBE5190460DCD519D98025
:10079600877BFF7A0879A5D202809C79108002793E
:1007A60008C206C2088008D2D5790A8004790AC22E
:1007B600D5E519047002F519E4FAFDFEFF120616D6
:1007C600FC7B08200113120616FD7B1030000A126E
:1007D6000616FE120616FF7B20EC3382D592D55004
:1007E60013C3E43000069FFFE49EFEE42001039D50
:1007F600FDE49CFCE4CBF8C201EC700CCFCECDCC72
:10080600E824F8F870F38017C3EF33FFEE33FEEDFC
:1008160033FDEC33FCEB33FB994002FB0FD8E9EBDD
:10082600300105F8D0E0C448B201C0E00AEC4D4EF4
:100836004F78207B0070C2EAB5190040BCC0E012B8
:1008460008ABD0F0D0E0200104C4C0E0C4B201C0BF
:10085600F012063AD0F0D5F0EB02068A120BC20768
:10086600275307A15806F84C06F44207A54F07ADD3
:0F0876004407AD49070D4307B35507974607974A
:100885004507974709535006FC2D07002E07232BD4
:10089500070423072120093C2A06BC480000071B42
:1008A5003F3F3F00790AA2D5200314300509B9104E
:1008B500020404B9080104A2D5200602500104204F
:1008C50002689202B518005034C0E07F2030031949
:1008D5007F30A20272067205500F120902C202C2CF
:1008E50006C205C2087F30800F300503E9C0E0125B
:1008F5000651300503D0E0F9D0E0B518CC30051726
:100905007F30B9100C1206517F583004077F78806C
:1009150003B908031206513002057F2D0206517FE7
:10092500202008F87F2B2006F322920280CF286E24
:10093500756C6C2900D2011206163001F8C20178D7
:100945001830D50108F60206BC2D50434958120649
:10095500162403B405004001E490094E93120642A3
:0D096500743A120642D2037518040207A16D
:100B4700EF4E6012EF60010EEDBB010B89828A83C5
:100B5700F0A3DFFCDEFA2289F05007F709DFFCA9D2
:0C0B6700F022BBFEFCF309DFFCA9F02229
:100B7300BB010CE58229F582E5833AF583E0225037
:100B830006E92582F8E622BBFE06E92582F8E22281
:0D0B9300E58229F582E5833AF583E493229B
:100BA000BB010689828A83F0225002F722BBFE0134
:020BB000F3222E
:100BB200FAE6FB0808E6F925F0F618E6CA3AF62244
:100BC200D083D082F8E4937012740193700DA3A3C2
:100BD20093F8740193F5828883E4737402936860D6
:060BE200EFA3A3A380DFD6
:100E0700EFB40A07740D120E12740A309811A899DC
:100E1700B8130CC2983098FDA899C298B811F6304B
:070E270099FDC299F5992223
:00000001FF
