:030000000200C437
:0C00C400787FE4F6D8FD75811502010B71
:0B018A0012000312017C1201B980FB7F
:09019500C2B3D2B2C2B4D2B52249
:09019E00D2B3C2B2D2B4C2B52240
:0901A700D2B3C2B2C2B4C2B52247
:0901B000C2B3C2B2D2B4C2B5223E
:0901B900C2B3C2B2C2B4C2B52245
:0D017C00007F087E017DF3DDFEDEFCDFFA72
:010189002253
:0801C2007F127EEBDEFEDFFC84
:0101CA002212
:04001C0002080000D6
:10000300758E017598505389F0438920758BFD7562
:090013008DFDD28ED2AFD2AC22D9
:03002300020026B2
:10002600C0E0C0F0C083C082C0D075D000C000C0A0
:0D00360001C002C003C004C005C006C00721
:10004300309863C298AF99BF4D06750800750900D3
:100053000509E5097002050814240AF8A607E50A4C
:10006300644D702AE50B24CE600F146011146013E5
:100073002403701712019E800D120195800812014E
:10008300A780031201B01201C280031201B9E5096E
:10009300640C45087010F508F509FE7F0CFDFB7A2A
:0600A30000790A12015071
:1000A900D007D006D005D004D003D002D001D000AB
:0B00B900D0D0D082D083D0F0D0E03255
:1000D00002018AE493A3F8E493A34003F68001F2BB
:1000E00008DFF48029E493A3F85407240CC8C33331
:1000F000C4540F4420C8834004F456800146F6DF00
:10010000E4800B010204081020408090001CE47E73
:10011000019360BCA3FF543F30E509541FFEE493F4
:10012000A360010ECF54C025E060A840B8E493A3BB
:10013000FAE493A3F8E493A3C8C582C8CAC583CAE6
:10014000F0A3C8C582C8CAC583CADFE9DEE780BE9E
:0100200000DF
:10015000EF4E6012EF60010EEDBB010B89828A83C6
:10016000F0A3DFFCDEFA2289F05007F709DFFCA9D3
:0C017000F022BBFEFCF309DFFCA9F0222A
:00000001FF
