:03000000020223D6
:0C022300787FE4F6D8FD75811302026AB2
:10033D001203751203E21203AC1202AF8F0B8E0A79
:10034D008D098C08E4FFFE7D207C41AB0BAA0AA928
:10035D0009A80812011450081203F81203BA80D923
:08036D001203FD12038A80D186
:0C03E20053890F438910E4F58DF58B2240
:0A03EE00C2A3D2A3120003C2A3228F
:1002AF00E4F58DF58B1203EE30A2FDD28E20A2FD68
:1002BF00C28EAF8DEFFEAD8B7C00E42DFDEC3EFCCE
:1002CF00E41201927B487AE1798A783F12000E8F0F
:1002DF000F8E0E8D0D8C0C7F967E437D8B7C3CABF1
:0A02EF000FAA0EA90DA80C12000EB4
:0102F90022E2
:040003007F02DFFE9B
:0100070022D6
:0C03C8007F0F7E027DEBDDFEDEFCDFFA25
:0103D4002206
:0C03D5007F027E0D7DEDDDFEDEFCDFFA18
:0103E10022F9
:0D039E00007F027E677D93DDFEDEFCDFFA4E
:0103AB00222F
:0404020002100000E4
:100375005389F0438901758A33758CFED28CC28D01
:05038500D2A9D2AF2255
:0503F800C2B7D2B622DD
:0503FD00D2B7C2B622D8
:0E03AC00751200751301E4F510F511D29122BF
:0E03BA00751200751303E4F510F5110203C867
:10038A00751200751301E4F510F5111203D5120365
:04039A00D50203D5B0
:03000B000202FAF4
:1002FA00C0E0C0D075D000C0000511E5117002053C
:10030A0010758A33758CFEC3E5119513E512648066
:10031A00F8E5106480985004D2918002C291E511E8
:10032A00642845107006F510F511D291D000D0D08E
:03033A00D0E032DE
:10000E00EC4D6011E8497017ED33EC3304600DE4EC
:10001E00FCFFFEFD22E933E8330470F80202001201
:10002E0001CB58046009E4CC248150062850090203
:10003E00020A284003020207C0E0EB4A7044B9806E
:10004E0006D0E0FB0201F6EF4E701CBD8008EBFF00
:10005E00EAFEE9FD80EBE98DF0A4FEE5F00200F783
:10006E00E9CDF9EAFEEBFFEF89F0A4FCE5F0CE89CD
:10007E00F0A42EFFE435F0CD89F0A42DFEE435F08A
:10008E008067EF4E7005BD80D780C3EF8BF0A4ACB8
:10009E00F0EE8BF0A42CFCE435F0F8EF8AF0A42CF3
:1000AE00E5F038FCE433CB8DF0A42CFCE5F03BF806
:1000BE00EE8AF0A42CFCE5F038F8E433CF89F0A4F6
:1000CE002CFCE5F038CF3400CE89F0A42FFFE5F0FC
:1000DE003EFEE433C98DF0A42EFEE5F039CD8AF054
:1000EE00A42FFFE5F03EFEE43DFD33D0E0FB5007CC
:1000FE000BBB000F02020AEC2CFCEF33FFEE33FEBB
:06010E00ED33FD0201E2E9
:1001140074F8CC6480CCC86480C8F58204604FC392
:10012400EB9FF5F0EA9E42F0E99D42F0E89C45F031
:10013400603C501DE5825FFFE582D313CB5BCBF4BB
:100144002B5582FB50280ABA002409B900200880E4
:100154001DE5825BFBE582D313CF5FCFF4C3132F7E
:100164005582FF50090EBE00050DBD00010CC3EB06
:100174009FF5F0EA9E42F0E99D42F0E89C45F0606C
:0901840007CC4820E701B3EC228E
:10018D0075F020800E75F010800575F0087D007EED
:10019D00007F003392D530D503120215EC33401099
:1001AD00EF33FFEE33FEED33FDEC33FCD5F0ED22F6
:0E01BD00E5F0247EA2D513CC92E7CDCEFF2232
:1001CB00E9D2E7C933E833F892D5EDD2E7CD33EC7A
:0701DB0033FC5002B2D522F3
:1001E200EC30E7100FBF000C0EBE00080DBD00047E
:1001F2000BEB6014A2D5EB13FCED92E7FD2274FF2A
:10020200FCFDFEFF22E480F8A2D574FF13FC7D8082
:03021200E480EF96
:10022F0002033DE493A3F8E493A34003F68001F2A5
:10023F0008DFF48029E493A3F85407240CC8C333D0
:10024F00C4540F4420C8834004F456800146F6DF9F
:10025F00E4800B0102040810204080900402E47E29
:10026F00019360BCA3FF543F30E509541FFEE49394
:10027F00A360010ECF54C025E060A840B8E493A35B
:10028F00FAE493A3F8E493A3C8C582C8CAC583CA86
:10029F00F0A3C8C582C8CAC583CADFE9DEE780BE3E
:0104060000F5
:0E021500C3E49FFFE49EFEE49DFDE49CFC22FA
:00000001FF
