:03000000020B0DE3
:0C0B0D00787FE4F6D8FD758125020B54BA
:100C16002D2D2D2D2D2D52656164792D2D2D2D2DEA
:100C26002D002D2D2D2D2D2D58756E4A692D2D2D0E
:100C36002D2D2D002D2D2D2D2D2D42695A68616EDD
:100C4600672D2D2D2D2D2D002D2D2D2D2D2D47656F
:0B0C56006E5375692D2D2D2D2D2D00E6
:100CDD0020A70920A606751E00751F1930A706202E
:100CED00A603120E5D20A70630A603120E6630A7CE
:080CFD000630A603120E4B2283
:100D2C0020A50620A403120E5430A50620A40312FD
:100D3C000E6620A50630A403120E5D30A50630A465
:050D4C0003120E4B2212
:1009C600120DDBE50C6009120DF5E4F50C120DCDE8
:1009D600120C618F0B8E0A8D098C08E4FFFE7D0CCC
:1009E6007C42AB0BAA0AA909A808120704600540B5
:1009F60003020E54E4FFFE7D207C41AB0BAA0AA93C
:100A060009A8081207045003020E42120E4B120EDA
:100A160001120DCD120C618F148E138D128C1112D2
:100A26000DF5120DCD120E0D750C02120DCD120C18
:100A3600618F108E0F8D0E8C0DAB14AA13A912A800
:100A4600111207045009120E66120DDB120E4BAF7F
:100A560010AE0FAD0EAC0DAB14AA13A912A811124D
:100A66000704600B4009120E5D120DDB120E4B22BD
:10090900E4F515F516120DA5120DE9120DF5E4F52C
:100919000C120DCD120B99120D517BFF7A0C791621
:100929007D027F02120CAC20952730962430972146
:10093900E5166402451560107BFF7A0C79287D0263
:100949007F02120CAC120D51751500751602120CAE
:10095900DD309527209624309721E5166401451549
:1009690060107BFF7A0C793A7D027F02120CAC127F
:100979000D517515007516011209C6309527309667
:1009890024209721E5166403451560107BFF7A0C36
:10099900794E7D027F02120CAC120D51751500754E
:1009A9001603120D2C309503020930309603020903
:0D09B90030309703020930120E4B02093056
:0C0DE90053890F438910E4F58DF58B222F
:0A0E2F00C2A3D2A3120003C2A32243
:100C6100E4F58DF58B120E2F30A2FDD28E20A2FD60
:100C7100C28EAF8DEFFEAD8B7C00E42DFDEC3EFC12
:100C8100E41207827B487AE1798A783F1205FE8F68
:100C91001A8E198D188C177F967E437D8B7C3CAB09
:0A0CA1001AAA19A918A8171205FED7
:010CAB002226
:040003007F02DFFE9B
:0100070022D6
:0D0DCD00007F047E277DD1DDFEDEFCDFFA15
:010DDA0022F6
:0D0DDB00007F027E677D93DDFEDEFCDFFA07
:010DE80022E8
:080E390002200000022200006B
:100DA5005389F0438901758A33758CFED28CC28DC7
:050DB500D2A9D2AF221B
:0C0DF500752400752503E4F522F5232287
:0C0E0100752400752505E4F522F5232278
:0C0E0D00752400752501E4F522F5232270
:03000B00020A7670
:100A7600C0E0C0F0C083C082C0D075D000C000C046
:100A860001C002C003C004C005C006C0070523E5B7
:100A96002370020522758A33758CFEC3E5239525DE
:100AA600E5246480F8E5226480985004D29180029F
:100AB600C291E523642845227006F522F523D291DA
:100AC600C3E521951FE51E6480F8E52064809850F3
:100AD60005120E548003120E4BC3E5219428E5201F
:100AE600648094804006752000752100D007D006EA
:100AF600D005D004D003D002D001D000D0D0D0820F
:070B0600D083D0F0D0E032F3
:090E4200C2B3D2B7C2B4D2B5228A
:090E4B00C2B3C2B7C2B4C2B522A1
:090E5400D2B3C2B7D2B4C2B52278
:090E5D00D2B3C2B7C2B4C2B5227F
:090E6600C2B3C2B7D2B4C2B52276
:10000E0000000000000000000000000000000000E2
:10001E00000000F800000000000000333000000077
:10002E0000100C06100C060000000000000000007E
:10003E0040C07840C0784000043F04043F040400F0
:10004E00007088FC08300000001820FF211E000000
:10005E00F008F000E018000000211C031E211E0015
:10006E0000F00888700000001E212324192721109B
:10007E0010160E000000000000000000000000003E
:10008E00000000E0180402000000000718204000E5
:10009E0000020418E00000000040201807000000D5
:1000AE00404080F0804040000202010F0102020039
:1000BE00000000F0000000000101011F010101001D
:1000CE00000000000000000080B070000000000082
:1000DE00000000000000000000010101010101010B
:1000EE0000000000000000000030300000000000A2
:1000FE000000000080601804006018060100000077
:10010E0000E010080810E000000F102020100F0073
:10011E00001010F8000000000020203F20200000FA
:10012E000070080808887000003028242221300052
:10013E0000300888884830000018202020110E005A
:10014E000000C02010F8000000070424243F240003
:10015E0000F80888880808000019212020110E00D8
:10016E0000E0108888180000000F112020110E00EA
:10017E0000380808C83808000000003F00000000E2
:10018E000070880808887000001C222121221C00A3
:10019E0000E010080810E0000000312222110F00CC
:1001AE00000000C0C0000000000000303000000061
:1001BE0000000080000000000000806000000000D1
:1001CE0000008040201008000001020408102000EA
:1001DE004040404040404000040404040404040035
:1001EE0000081020408000000020100804020100CA
:1001FE00007048080808F0000000003036010000CA
:10020E00C030C828E810E0000718272423140B007C
:10021E000000C038E0000000203C230202273820F6
:10022E0008F8888888700000203F202020110E00DA
:10023E00C0300808080838000718202020100800D1
:10024E0008F808080810E000203F202020100F00BA
:10025E0008F88888E8081000203F20202320180086
:10026E0008F88888E8081000203F200003000000EE
:10027E00C03008080838000007182020221E02008F
:10028E0008F808000008F808203F210101213F204E
:10029E00000808F8080800000020203F2020000079
:1002AE0000000808F8080800C08080807F00000069
:1002BE0008F888C028180800203F200126382000A2
:1002CE0008F8080000000000203F20202020300009
:1002DE0008F8F800F8F80800203F003F003F200023
:1002EE0008F830C00008F808203F200007183F002B
:1002FE00E01008080810E0000F10202020100F005A
:10030E0008F808080808F000203F2101010100004C
:10031E00E01008080810E0000F18242438504F0091
:10032E0008F8888888887000203F2000030C302051
:10033E0000708808080838000038202121221C008F
:10034E00180808F8080818000000203F20000000D8
:10035E0008F808000008F808001F202020201F00C1
:10036E000878880000C83808000007380E01000021
:10037E00F80800F80008F800033C0700073C0300EB
:10038E00081868808068180820302C03032C302051
:10039E000838C800C83808000000203F20000000C0
:1003AE0010080808C8380800203826212020180018
:1003BE00000000FE020202000000007F40404000EC
:1003CE00000C30C000000000000000010638C00024
:1003DE0000020202FE000000004040407F000000CC
:1003EE0000000402020204000000000000000000F1
:1003FE0000000000000000008080808080808080EF
:10040E0000020204000000000000000000000000D6
:10041E0000008080808000000019242222223F20CC
:10042E0008F8008080000000003F112020110E000F
:10043E000000008080800000000E1120202011009E
:10044E00000000808088F800000E112020103F2050
:10045E000000808080800000001F222222221300D4
:10046E00008080F0888888180020203F202000001F
:10047E000000808080808000006B949494936000D4
:10048E0008F8008080800000203F210000203F20DF
:10049E0000809898000000000020203F20200000DF
:1004AE00000000809898000000C08080807F0000CF
:1004BE0008F8000080808000203F24022D302000AC
:1004CE00000808F8000000000020203F2020000057
:1004DE008080808080808000203F20003F20003F71
:1004EE008080008080800000203F210000203F207F
:1004FE000000808080800000001F202020201F0030
:10050E00808000808000000080FFA12020110E005E
:10051E000000008080808000000E112020A0FF804F
:10052E00808080008080800020203F2120000100FC
:10053E000000808080808000003324242424190051
:10054E00008080E0808000000000001F202000005E
:10055E008080000000808000001F202020103F209F
:10056E00808080000080808000010E30080601002F
:10057E0080800080008080800F300C030C300F00D4
:10058E0000808000808080000020312E0E312000FF
:10059E00808080000080808080818E70180601002F
:1005AE0000808080808080000021302C222130004D
:1005BE0000000000807C020200000000003F40406E
:1005CE0000000000FF00000000000000FF0000001F
:1005DE000002027C800000000040403F000000004E
:1005EE0000060101020204040000000000000000E9
:0B0E1900C292D293D29200C29300223A
:0B0E2400C292C293D29200D29300222F
:0B0D6F00120D0C120D7AAF06120D0CD5
:0F0D7A00D29300D29200A293E433FF00C2920002
:010D89002247
:070D0500AE07120E197F7802
:100D0C00E4FBFAC292EF33929300D29200C29200AB
:0F0D1C00EF25E0FF0BBB00010AEB64084A70E40F
:010D2B0022A5
:050DBA00120DBFE4FF73
:0E0DBF00120D05120D7AE4FF120D6F020E24C4
:0D0D8A00740E2DF58274003CF583E493FF98
:0E0D9700120D05120D7A7F40120D6F020E2410
:100B99007FAE120DBA7F10120DBF7F40120DBF7FBD
:100BA900B0120DBF7F81120DBF7FFF120DBF7FA154
:100BB900120DBF7FA6120DBF7FA8120DBF7F3F1276
:100BC9000DBF7FC8120DBF7FD3120DBA7FD5120D8D
:100BD900BF7F80120DBF7FD8120DBF7F05120DBFD9
:100BE9007FD9120DBF7FF1120DBF7FDA120DBF7FC2
:100BF90012120DBF7FDB120DBF7F30120DBF7F8D2B
:0D0C0900120DBF7F14120DBF7FAF020DBF93
:100D5100E4FDED24B0FF120DBA7F10120DBFE4FCCB
:0D0D6100E4FF120D970CBC80F70DBD08E5F6
:010D6E002262
:06082C008F1C8D1DA903C5
:10083200E51C25E024AEFF120DBFE51D540FFF128B
:100842000DBFE51D7804A2E713D8FB2410FF120D9B
:10085200BFE9FF3395E0FEEF24E0FFEE34FFFEEF49
:10086200C4F8540FC868FFEEC454F048AD07FCE961
:10087200FF3395E0FEEFC4F8540FC868FFEEC4548E
:10088200F048FEEF2408FFEE34FEFEC3ED9FEC9E1F
:10089200500A120D8A0DBD00010C80D3E51C25E023
:1008A20024AFFF120DBFE51D540FFF120DBFE51D52
:1008B2007804A2E713D8FB2410FF120DBFE9FF331F
:1008C20095E0FEEFC4F8540FC868FFEEC454F04838
:1008D200FEEF2408FDEE34FEFCE9FF3395E0FEEF67
:1008E200C4F8540FC868FFEEC454F048FEEF241059
:1008F200FFEE34FEFEC3ED9FEC9E500A120D8A0DF0
:06090200BD00010C80D3D2
:0109080022CC
:100CAC008F178D188B198A1A891BAB19AA1AA91BB5
:100CBC00120805FB601AAD18AF1712082C74012529
:100CCC001BF51BE4351AF51A74082518F51880DA8B
:010CDC0022F5
:1005FE00EC4D6011E8497017ED33EC3304600DE4F7
:10060E00FCFFFEFD22E933E8330470F80207F01216
:10061E0007BB58046009E4CC248150062850090217
:10062E0007FA2840030207F7C0E0EB4A7044B9808E
:10063E0006D0E0FB0207E6EF4E701CBD8008EBFF14
:10064E00EAFEE9FD80EBE98DF0A4FEE5F00206E797
:10065E00E9CDF9EAFEEBFFEF89F0A4FCE5F0CE89D7
:10066E00F0A42EFFE435F0CD89F0A42DFEE435F094
:10067E008067EF4E7005BD80D780C3EF8BF0A4ACC2
:10068E00F0EE8BF0A42CFCE435F0F8EF8AF0A42CFD
:10069E00E5F038FCE433CB8DF0A42CFCE5F03BF810
:1006AE00EE8AF0A42CFCE5F038F8E433CF89F0A400
:1006BE002CFCE5F038CF3400CE89F0A42FFFE5F006
:1006CE003EFEE433C98DF0A42EFEE5F039CD8AF05E
:1006DE00A42FFFE5F03EFEE43DFD33D0E0FB5007D6
:1006EE000BBB000F0207FAEC2CFCEF33FFEE33FED0
:0606FE00ED33FD0207D2FE
:1007040074F8CC6480CCC86480C8F58204604FC39C
:10071400EB9FF5F0EA9E42F0E99D42F0E89C45F03B
:10072400603C501DE5825FFFE582D313CB5BCBF4C5
:100734002B5582FB50280ABA002409B900200880EE
:100744001DE5825BFBE582D313CF5FCFF4C3132F88
:100754005582FF50090EBE00050DBD00010CC3EB10
:100764009FF5F0EA9E42F0E99D42F0E89C45F06076
:0907740007CC4820E701B3EC2298
:10077D0075F020800E75F010800575F0087D007EF7
:10078D00007F003392D530D50312081EEC33401094
:10079D00EF33FFEE33FEED33FDEC33FCD5F0ED2200
:0E07AD00E5F0247EA2D513CC92E7CDCEFF223C
:1007BB00E9D2E7C933E833F892D5EDD2E7CD33EC84
:0707CB0033FC5002B2D522FD
:1007D200EC30E7100FBF000C0EBE00080DBD000488
:1007E2000BEB6014A2D5EB13FCED92E7FD2274FF34
:1007F200FCFDFEFF22E480F8A2D574FF13FC7D808D
:03080200E480EFA0
:100B1900020909E493A3F8E493A34003F68001F2E0
:100B290008DFF48029E493A3F85407240CC8C333DD
:100B3900C4540F4420C8834004F456800146F6DFAC
:100B4900E4800B0102040810204080900E39E47EF5
:100B5900019360BCA3FF543F30E509541FFEE493A1
:100B6900A360010ECF54C025E060A840B8E493A368
:100B7900FAE493A3F8E493A3C8C582C8CAC583CA93
:100B8900F0A3C8C582C8CAC583CADFE9DEE780BE4B
:010E410000B0
:10080500BB010689828A83E0225002E722BBFE02F1
:09081500E32289828A83E4932224
:0E081E00C3E49FFFE49EFEE49DFDE49CFC22EB
:00000001FF
