:030000000202EE0B
:0C02EE00787FE4F6D8FD75811C02033512
:10022300120408120446120452E4F50812041D12C3
:10023300041D12042BE5086009120452E4F50812A8
:10024300041D12037A8F0C8E0B8D0A8C09E4FFFEBA
:100253007D207C42AB0CAA0BA90AA80912011460E9
:1002630007400512049280CAE4FFFE7D207C41AB67
:100273000CAA0BA90AA809120114500512048080C4
:10028300B112048912045E12041D12037A8F108EB8
:100293000F8D0E8C0D12045212041D12046A750880
:1002A3000212041D12037A8F148E138D128C11AB5C
:1002B30010AA0FA90EA80D12011450091204A412BA
:1002C300042B120489AF14AE13AD12AC11AB10AAF8
:1002D3000FA90EA80D120114600250030202351279
:0B02E300049B12042B12048902023558
:0C04460053890F438910E4F58DF58B22DB
:0A047600C2A3D2A3120003C2A32206
:10037A00E4F58DF58B12047630A2FDD28E20A2FD13
:10038A00C28EAF8DEFFEAD8B7C00E42DFDEC3EFC02
:10039A00E41201927B487AE1798A783F12000E8F43
:1003AA00188E178D168C157F967E437D8B7C3CAB01
:0A03BA0018AA17A916A81512000EC4
:0103C4002216
:040003007F02DFFE9B
:0100070022D6
:0D041D00007F047E277DD1DDFEDEFCDFFACE
:01042A0022AF
:0C0439007F0F7E027DEBDDFEDEFCDFFAB3
:010445002294
:0D042B00007F027E677D93DDFEDEFCDFFAC0
:0104380022A1
:0404B7000219000026
:100408005389F0438901758A33758CFED28CC28D6D
:05041800D2A9D2AF22C1
:0504AD00C2B7D2B62227
:0504B200D2B7C2B62222
:0C045200751B00751C03E4F519F51A2257
:0C045E00751B00751C05E4F519F51A2249
:0C046A00751B00751C01E4F519F51A2241
:03000B000203C528
:1003C500C0E0C0D075D000C000051AE51A7002055E
:1003D50019758A33758CFEC3E51A951CE51B648077
:1003E500F8E5196480985004D2918002C291E51A0B
:1003F500642845197006F519F51AD291D000D0D0A8
:03040500D0E03212
:09048000C2B3D2B7C2B4D2B52256
:09048900C2B3C2B7C2B4C2B5226D
:09049200D2B3C2B7D2B4C2B52244
:09049B00D2B3C2B7C2B4C2B5224B
:0904A400C2B3C2B7D2B4C2B52242
:10000E00EC4D6011E8497017ED33EC3304600DE4EC
:10001E00FCFFFEFD22E933E8330470F80202001201
:10002E0001CB58046009E4CC248150062850090203
:10003E00020A284003020207C0E0EB4A7044B9806E
:10004E0006D0E0FB0201F6EF4E701CBD8008EBFF00
:10005E00EAFEE9FD80EBE98DF0A4FEE5F00200F783
:10006E00E9CDF9EAFEEBFFEF89F0A4FCE5F0CE89CD
:10007E00F0A42EFFE435F0CD89F0A42DFEE435F08A
:10008E008067EF4E7005BD80D780C3EF8BF0A4ACB8
:10009E00F0EE8BF0A42CFCE435F0F8EF8AF0A42CF3
:1000AE00E5F038FCE433CB8DF0A42CFCE5F03BF806
:1000BE00EE8AF0A42CFCE5F038F8E433CF89F0A4F6
:1000CE002CFCE5F038CF3400CE89F0A42FFFE5F0FC
:1000DE003EFEE433C98DF0A42EFEE5F039CD8AF054
:1000EE00A42FFFE5F03EFEE43DFD33D0E0FB5007CC
:1000FE000BBB000F02020AEC2CFCEF33FFEE33FEBB
:06010E00ED33FD0201E2E9
:1001140074F8CC6480CCC86480C8F58204604FC392
:10012400EB9FF5F0EA9E42F0E99D42F0E89C45F031
:10013400603C501DE5825FFFE582D313CB5BCBF4BB
:100144002B5582FB50280ABA002409B900200880E4
:100154001DE5825BFBE582D313CF5FCFF4C3132F7E
:100164005582FF50090EBE00050DBD00010CC3EB06
:100174009FF5F0EA9E42F0E99D42F0E89C45F0606C
:0901840007CC4820E701B3EC228E
:10018D0075F020800E75F010800575F0087D007EED
:10019D00007F003392D530D503120215EC33401099
:1001AD00EF33FFEE33FEED33FDEC33FCD5F0ED22F6
:0E01BD00E5F0247EA2D513CC92E7CDCEFF2232
:1001CB00E9D2E7C933E833F892D5EDD2E7CD33EC7A
:0701DB0033FC5002B2D522F3
:1001E200EC30E7100FBF000C0EBE00080DBD00047E
:1001F2000BEB6014A2D5EB13FCED92E7FD2274FF2A
:10020200FCFDFEFF22E480F8A2D574FF13FC7D8082
:03021200E480EF96
:1002FA00020223E493A3F8E493A34003F68001F2F5
:10030A0008DFF48029E493A3F85407240CC8C33304
:10031A00C4540F4420C8834004F456800146F6DFD3
:10032A00E4800B01020408102040809004B7E47EA8
:10033A00019360BCA3FF543F30E509541FFEE493C8
:10034A00A360010ECF54C025E060A840B8E493A38F
:10035A00FAE493A3F8E493A3C8C582C8CAC583CABA
:10036A00F0A3C8C582C8CAC583CADFE9DEE780BE72
:0104BB000040
:0E021500C3E49FFFE49EFEE49DFDE49CFC22FA
:00000001FF
