:030000000200C437
:0C00C400787FE4F6D8FD75811902010B6D
:1002360012028412026F75170A7516281202961298
:10024600029675172875160A12029612029680E60D
:05000300D2B4C2B522D9
:05001E00D2B3C2B222C2
:0502DA00C2B4C2B52210
:0502DF00C2B3C2B2220F
:0902A400C2B3D2B2C2B4D2B52239
:0902AD00D2B3C2B2D2B4C2B52230
:0902B600D2B3C2B2C2B4C2B52237
:0902BF00C2B3C2B2D2B4C2B5222E
:0902C800C2B3C2B2C2B4C2B52235
:0D029600007F087E017DF3DDFEDEFCDFFA57
:0102A3002238
:0802D1007F127EEBDEFEDFFC74
:0102D9002202
:04000E0002080000E4
:10025600758E017598505389F0438920758BFD750D
:090266008DFDD28ED2AFD2AC2284
:03002300020026B2
:10002600C0E0C0F0C083C082C0D075D000C000C0A0
:0D00360001C002C003C004C005C006C00721
:10004300309863C298AF99BF4D06750800750900D3
:100053000509E5097002050814240AF8A607E50A4C
:10006300644D702AE50B24CE600F146011146013E5
:10007300240370171202AD800D1202A4800812022D
:10008300B680031202BF1202D180031202C8E5092F
:10009300640C45087010F508F509FE7F0CFDFB7A2A
:0600A30000790A12020AB6
:1000A900D007D006D005D004D003D002D001D000AB
:0B00B900D0D0D082D083D0F0D0E03255
:06001200011900011800B5
:10028400758901758A33758CFED28CC28DD2A9D240
:02029400AF2297
:10026F0053890F438910758B33758DFED28EC28FD4
:05027F00D2ABD2AF225A
:03000B000201509F
:10015000C0E0C0F0C083C082C0D075D000C000C075
:1001600001C002C003C004C005C006C00705197560
:100170008A33758CFEC3E5176480F8E519648098AE
:10018000500512000380031202DAE519B428037542
:100190001900D007D006D005D004D003D002D0017A
:0D01A000D000D0D0D082D083D0F0D0E0329B
:03001B000201AD32
:1001AD00C0E0C0F0C083C082C0D075D000C000C018
:1001BD0001C002C003C004C005C006C00705187504
:1001CD008B33758DFEC3E5166480F8E51964809850
:1001DD00500512001E80031202DFE518B4280375C6
:1001ED001800D007D006D005D004D003D002D0011E
:0D01FD00D000D0D0D082D083D0F0D0E0323E
:1000D000020236E493A3F8E493A34003F68001F20E
:1000E00008DFF48029E493A3F85407240CC8C33331
:1000F000C4540F4420C8834004F456800146F6DF00
:10010000E4800B010204081020408090000EE47E81
:10011000019360BCA3FF543F30E509541FFEE493F4
:10012000A360010ECF54C025E060A840B8E493A3BB
:10013000FAE493A3F8E493A3C8C582C8CAC583CAE6
:10014000F0A3C8C582C8CAC583CADFE9DEE780BE9E
:0100180000E7
:10020A00EF4E6012EF60010EEDBB010B89828A830B
:10021A00F0A3DFFCDEFA2289F05007F709DFFCA918
:0C022A00F022BBFEFCF309DFFCA9F0226F
:00000001FF
