:03000000020223D6
:0C022300787FE4F6D8FD75811C02026AA9
:1002AF001203B51203F31203FFE4F5081203CA1287
:1002BF0003CA1203D8E50860091203FFE4F5081218
:1002CF0003CA1203278F0C8E0B8D0A8C09E4FFFED5
:1002DF007D0C7C42AB0CAA0BA90AA8091201146071
:1002EF0007400512043280CA12042D12040B1203A8
:1002FF00CA1203278F108E0F8D0E8C0D1203FF1253
:10030F0003CA1204177508021203CA1203278F14A7
:08031F008E138D128C11809ADF
:0C03F30053890F438910E4F58DF58B222F
:0A042300C2A3D2A3120003C2A32259
:10032700E4F58DF58B12042330A2FDD28E20A2FDB9
:10033700C28EAF8DEFFEAD8B7C00E42DFDEC3EFC55
:10034700E41201927B487AE1798A783F12000E8F96
:10035700188E178D168C157F967E437D8B7C3CAB54
:0A03670018AA17A916A81512000E17
:010371002269
:040003007F02DFFE9B
:0100070022D6
:0D03CA00007F047E277DD1DDFEDEFCDFFA22
:0103D7002203
:0C03E6007F0F7E027DEBDDFEDEFCDFFA07
:0103F20022E8
:0D03D800007F027E677D93DDFEDEFCDFFA14
:0103E50022F5
:0404370002190000A6
:1003B5005389F0438901758A33758CFED28CC28DC1
:0503C500D2A9D2AF2215
:05042D00C2B7D2B622A7
:05043200D2B7C2B622A2
:0C03FF00751B00751C03E4F519F51A22AB
:0C040B00751B00751C05E4F519F51A229C
:0C041700751B00751C01E4F519F51A2294
:03000B000203727B
:10037200C0E0C0D075D000C000051AE51A700205B1
:1003820019758A33758CFEC3E51A951CE51B6480CA
:10039200F8E5196480985004D2918002C291E51A5E
:1003A200642845197006F519F51AD291D000D0D0FB
:0303B200D0E03266
:10000E00EC4D6011E8497017ED33EC3304600DE4EC
:10001E00FCFFFEFD22E933E8330470F80202001201
:10002E0001CB58046009E4CC248150062850090203
:10003E00020A284003020207C0E0EB4A7044B9806E
:10004E0006D0E0FB0201F6EF4E701CBD8008EBFF00
:10005E00EAFEE9FD80EBE98DF0A4FEE5F00200F783
:10006E00E9CDF9EAFEEBFFEF89F0A4FCE5F0CE89CD
:10007E00F0A42EFFE435F0CD89F0A42DFEE435F08A
:10008E008067EF4E7005BD80D780C3EF8BF0A4ACB8
:10009E00F0EE8BF0A42CFCE435F0F8EF8AF0A42CF3
:1000AE00E5F038FCE433CB8DF0A42CFCE5F03BF806
:1000BE00EE8AF0A42CFCE5F038F8E433CF89F0A4F6
:1000CE002CFCE5F038CF3400CE89F0A42FFFE5F0FC
:1000DE003EFEE433C98DF0A42EFEE5F039CD8AF054
:1000EE00A42FFFE5F03EFEE43DFD33D0E0FB5007CC
:1000FE000BBB000F02020AEC2CFCEF33FFEE33FEBB
:06010E00ED33FD0201E2E9
:1001140074F8CC6480CCC86480C8F58204604FC392
:10012400EB9FF5F0EA9E42F0E99D42F0E89C45F031
:10013400603C501DE5825FFFE582D313CB5BCBF4BB
:100144002B5582FB50280ABA002409B900200880E4
:100154001DE5825BFBE582D313CF5FCFF4C3132F7E
:100164005582FF50090EBE00050DBD00010CC3EB06
:100174009FF5F0EA9E42F0E99D42F0E89C45F0606C
:0901840007CC4820E701B3EC228E
:10018D0075F020800E75F010800575F0087D007EED
:10019D00007F003392D530D503120215EC33401099
:1001AD00EF33FFEE33FEED33FDEC33FCD5F0ED22F6
:0E01BD00E5F0247EA2D513CC92E7CDCEFF2232
:1001CB00E9D2E7C933E833F892D5EDD2E7CD33EC7A
:0701DB0033FC5002B2D522F3
:1001E200EC30E7100FBF000C0EBE00080DBD00047E
:1001F2000BEB6014A2D5EB13FCED92E7FD2274FF2A
:10020200FCFDFEFF22E480F8A2D574FF13FC7D8082
:03021200E480EF96
:10022F000202AFE493A3F8E493A34003F68001F234
:10023F0008DFF48029E493A3F85407240CC8C333D0
:10024F00C4540F4420C8834004F456800146F6DF9F
:10025F00E4800B0102040810204080900437E47EF4
:10026F00019360BCA3FF543F30E509541FFEE49394
:10027F00A360010ECF54C025E060A840B8E493A35B
:10028F00FAE493A3F8E493A3C8C582C8CAC583CA86
:10029F00F0A3C8C582C8CAC583CADFE9DEE780BE3E
:01043B0000C0
:0E021500C3E49FFFE49EFEE49DFDE49CFC22FA
:00000001FF
