:030000000200C437
:0C00C400787FE4F6D8FD75811902010B6D
:100212001202A312028E20A70920A60675171975CD
:10022200161930A70920A60675170575161920A7F5
:100232000930A60675171975160530A7D930A6D646
:07024200E4F517F51680CF6B
:05000300D2B4C2B522D9
:05001E00D2B3C2B722BD
:0502F900C2B4C2B522F1
:0502FE00C2B3C2B722EB
:0902C300C2B3D2B7C2B4D2B52215
:0902CC00D2B3C2B7D2B4C2B5220C
:0902D500D2B3C2B7C2B4C2B52213
:0902DE00C2B3C2B7D2B4C2B5220A
:0902E700C2B3C2B7C2B4C2B52211
:0D02B500007F087E017DF3DDFEDEFCDFFA38
:0102C2002219
:0802F0007F127EEBDEFEDFFC55
:0102F80022E3
:04000E0002080000E4
:10027500758E017598505389F0438920758BFD75EE
:090285008DFDD28ED2AFD2AC2265
:03002300020026B2
:10002600C0E0C0F0C083C082C0D075D000C000C0A0
:0D00360001C002C003C004C005C006C00721
:10004300309863C298AF99BF4D06750800750900D3
:100053000509E5097002050814240AF8A607E50A4C
:10006300644D702AE50B24CE600F146011146013E5
:10007300240370171202CC800D1202C380081202EF
:10008300D580031202DE1202F080031202E7E509B3
:10009300640C45087010F508F509FE7F0CFDFB7A2A
:0600A30000790A12024977
:1000A900D007D006D005D004D003D002D001D000AB
:0B00B900D0D0D082D083D0F0D0E03255
:06001200011900011800B5
:1002A300758901758A33758CFED28CC28DD2A9D221
:0202B300AF2278
:10028E0053890F438910758B33758DFED28EC28FB5
:05029E00D2ABD2AF223B
:03000B000201509F
:10015000C0E0C0F0C083C082C0D075D000C000C075
:1001600001C002C003C004C005C006C00705197560
:100170008A33758CFEC3E5176480F8E519648098AE
:10018000500512000380031202F9C3E5196480943C
:10019000A84003751900D007D006D005D004D003BD
:1001A000D002D001D000D0D0D082D083D0F0D0E027
:0101B000321C
:03001B000201B12E
:1001B100C0E0C0F0C083C082C0D075D000C000C014
:1001C10001C002C003C004C005C006C00705187500
:1001D1008B33758DFEC3E5166480F8E5186480984D
:1001E100500512001E80031202FEC3E518648094BC
:1001F100A84003751800D007D006D005D004D0035D
:10020100D002D001D000D0D0D082D083D0F0D0E0C5
:0102110032BA
:1000D000020212E493A3F8E493A34003F68001F232
:1000E00008DFF48029E493A3F85407240CC8C33331
:1000F000C4540F4420C8834004F456800146F6DF00
:10010000E4800B010204081020408090000EE47E81
:10011000019360BCA3FF543F30E509541FFEE493F4
:10012000A360010ECF54C025E060A840B8E493A3BB
:10013000FAE493A3F8E493A3C8C582C8CAC583CAE6
:10014000F0A3C8C582C8CAC583CADFE9DEE780BE9E
:0100180000E7
:10024900EF4E6012EF60010EEDBB010B89828A83CC
:10025900F0A3DFFCDEFA2289F05007F709DFFCA9D9
:0C026900F022BBFEFCF309DFFCA9F02230
:00000001FF
