:030000000201AA50
:0C01AA00787FE4F6D8FD75810F0201F1AA
:1002C4001202EA12033512034112031B12034D12E8
:1002D40002FF1203411202FF1203591202FF12031A
:0602E400411202FF80E65A
:0C03350053890F438910E4F58DF58B22ED
:0A036500C2A3D2A3120003C2A32218
:10023600E4F58DF58B12036530A2FDD28E20A2FD6A
:10024600C28EAF8DEFFEAD8B7C00E42DFDEC3EFC47
:10025600E41201197B487AE1798A783F12000E8F01
:100266000B8E0A8D098C087F967E437D8B7C3CAB7A
:0A0276000BAA0AA909A80812000E3D
:01028000225B
:040003007F02DFFE9B
:0100070022D6
:0D02FF00007F047E277DD1DDFEDEFCDFFAEE
:01030C0022CE
:0C031B007F0F7E027DEBDDFEDEFCDFFAD2
:0103270022B3
:0C0328007F027E0D7DEDDDFEDEFCDFFAC5
:0103340022A6
:0D030D00007F027E677D93DDFEDEFCDFFADF
:01031A0022C0
:04037900020C000072
:1002EA005389F0438901758A33758CFED28CC28D8D
:0502FA00D2A9D2AF22E1
:05036F00C2B7D2B62266
:05037400D2B7C2B62261
:0C034100750E00750F03E4F50CF50D229D
:0C034D00750E00750F05E4F50CF50D228F
:0C035900750E00750F01E4F50CF50D2287
:03000B000202816D
:10028100C0E0C0D075D000C000050DE50D700205BD
:100291000C758A33758CFEC3E50D950FE50E6480F0
:1002A100F8E50C6480985004D2918002C291E50D6A
:1002B1006428450C7006F50CF50DD291D000D0D014
:0302C100D0E03258
:10000E00EC4D6011E8497017ED33EC3304600DE4EC
:10001E00FCFFFEFD22E933E8330470F8020187127B
:10002E00015258046009E4CC24815006285009027C
:10003E00019128400302018EC0E0EB4A7044B98062
:10004E0006D0E0FB02017DEF4E701CBD8008EBFF79
:10005E00EAFEE9FD80EBE98DF0A4FEE5F00200F783
:10006E00E9CDF9EAFEEBFFEF89F0A4FCE5F0CE89CD
:10007E00F0A42EFFE435F0CD89F0A42DFEE435F08A
:10008E008067EF4E7005BD80D780C3EF8BF0A4ACB8
:10009E00F0EE8BF0A42CFCE435F0F8EF8AF0A42CF3
:1000AE00E5F038FCE433CB8DF0A42CFCE5F03BF806
:1000BE00EE8AF0A42CFCE5F038F8E433CF89F0A4F6
:1000CE002CFCE5F038CF3400CE89F0A42FFFE5F0FC
:1000DE003EFEE433C98DF0A42EFEE5F039CD8AF054
:1000EE00A42FFFE5F03EFEE43DFD33D0E0FB5007CC
:1000FE000BBB000F020191EC2CFCEF33FFEE33FE35
:06010E00ED33FD02016962
:1001140075F020800E75F010800575F0087D007E66
:10012400007F003392D530D50312019CEC3340108C
:10013400EF33FFEE33FEED33FDEC33FCD5F0ED226F
:0E014400E5F0247EA2D513CC92E7CDCEFF22AB
:10015200E9D2E7C933E833F892D5EDD2E7CD33ECF3
:0701620033FC5002B2D5226C
:10016900EC30E7100FBF000C0EBE00080DBD0004F7
:100179000BEB6014A2D5EB13FCED92E7FD2274FFA3
:10018900FCFDFEFF22E480F8A2D574FF13FC7D80FC
:03019900E480EF10
:1001B6000202C4E493A3F8E493A34003F68001F299
:1001C60008DFF48029E493A3F85407240CC8C3334A
:1001D600C4540F4420C8834004F456800146F6DF19
:1001E600E4800B0102040810204080900379E47E2D
:1001F600019360BCA3FF543F30E509541FFEE4930E
:10020600A360010ECF54C025E060A840B8E493A3D4
:10021600FAE493A3F8E493A3C8C582C8CAC583CAFF
:10022600F0A3C8C582C8CAC583CADFE9DEE780BEB7
:01037D00007F
:0E019C00C3E49FFFE49EFEE49DFDE49CFC2274
:00000001FF
