:030000000200C437
:0C00C400787FE4F6D8FD75811702010B6F
:1001D90012000E75161412021212021275161E1250
:1001E900021212021275162812021212021280E36A
:09022000C2B3D2B2C2B4D2B522BD
:09022900D2B3C2B2D2B4C2B522B4
:09023200D2B3C2B2C2B4C2B522BB
:09023B00C2B3C2B2D2B4C2B522B2
:09024400C2B3C2B2C2B4C2B522B9
:0D021200007F087E017DF3DDFEDEFCDFFADB
:01021F0022BC
:08024D007F127EEBDEFEDFFCF8
:010255002286
:0400030002080000EF
:1001F900758E017598505389F0438920758BFD756B
:090209008DFDD28ED2AFD2AC22E1
:03002300020026B2
:10002600C0E0C0F0C083C082C0D075D000C000C0A0
:0D00360001C002C003C004C005C006C00721
:10004300309863C298AF99BF4D06750800750900D3
:100053000509E5097002050814240AF8A607E50A4C
:10006300644D702AE50B24CE600F146011146013E5
:1000730024037017120229800D1202208008120235
:1000830032800312023B12024D8003120244E5093F
:10009300640C45087010F508F509FE7F0CFDFB7A2A
:0600A30000790A1201AD14
:1000A900D007D006D005D004D003D002D001D000AB
:0B00B900D0D0D082D083D0F0D0E03255
:03000700011700DE
:10000E00758901758A33758CFED28CC28DD2A9D2B8
:02001E00AF220F
:03000B000201509F
:10015000C0E0C0F0C083C082C0D075D000C000C075
:1001600001C002C003C004C005C006C00705177562
:100170008A33758CFEC3E5166480F8E517648098B1
:1001800050051202298003120244E517B4280375B2
:100190001700D007D006D005D004D003D002D0017C
:0D01A000D000D0D0D082D083D0F0D0E0329B
:1000D0000201D9E493A3F8E493A34003F68001F26C
:1000E00008DFF48029E493A3F85407240CC8C33331
:1000F000C4540F4420C8834004F456800146F6DF00
:10010000E4800B0102040810204080900003E47E8C
:10011000019360BCA3FF543F30E509541FFEE493F4
:10012000A360010ECF54C025E060A840B8E493A3BB
:10013000FAE493A3F8E493A3C8C582C8CAC583CAE6
:10014000F0A3C8C582C8CAC583CADFE9DEE780BE9E
:01000A0000F5
:1001AD00EF4E6012EF60010EEDBB010B89828A8369
:1001BD00F0A3DFFCDEFA2289F05007F709DFFCA976
:0C01CD00F022BBFEFCF309DFFCA9F022CD
:00000001FF
