:030000000200C03B
:0C00C000787FE4F6D8FD75811502010779
:0801B30012000312017880FE26
:09018600C2B3D2B2C2B4D2B52258
:09018F00D2B3C2B2D2B4C2B5224F
:09019800D2B3C2B2C2B4C2B52256
:0901A100C2B3C2B2D2B4C2B5224D
:0901AA00C2B3C2B2C2B4C2B52254
:0D017800007F087E017DF3DDFEDEFCDFFA76
:010185002257
:04001C0002080000D6
:10000300758E017598505389F0438920758BFD7562
:090013008DFDD28ED2AFD2AC22D9
:03002300020026B2
:10002600C0E0C0F0C083C082C0D075D000C000C0A0
:0D00360001C002C003C004C005C006C00721
:1000430030985FC298AF99BF4D06750800750900D7
:100053000509E5097002050814240AF8A607E50A4C
:10006300B44D27E50B24CE600F14601114601324E4
:1000730003701412018F8012120186800D120198F1
:1000830080081201A180031201AAE509640C450846
:100093007010F508F509FE7F0CFDFB7A00790A1252
:0200A300014C0E
:1000A500D007D006D005D004D003D002D001D000AF
:0B00B500D0D0D082D083D0F0D0E03259
:1000CC000201B3E493A3F8E493A34003F68001F296
:1000DC0008DFF48029E493A3F85407240CC8C33335
:1000EC00C4540F4420C8834004F456800146F6DF04
:1000FC00E4800B010204081020408090001CE47E78
:10010C00019360BCA3FF543F30E509541FFEE493F8
:10011C00A360010ECF54C025E060A840B8E493A3BF
:10012C00FAE493A3F8E493A3C8C582C8CAC583CAEA
:10013C00F0A3C8C582C8CAC583CADFE9DEE780BEA2
:0100200000DF
:10014C00EF4E6012EF60010EEDBB010B89828A83CA
:10015C00F0A3DFFCDEFA2289F05007F709DFFCA9D7
:0C016C00F022BBFEFCF309DFFCA9F0222E
:00000001FF
